:020000040800F2
:1000000000000220DD1000084D1000084F1000080D
:10001000511000085310000855100008000000009F
:10002000000000000000000000000000314800084F
:100030005710000800000000D148000859100008BF
:100040002D1100082D1100082D1100082D11000898
:100050002D1100082D1100082D1100082D11000888
:100060002D1100082D1100082D1100082D11000878
:100070002D1100082D1100082D1100082D11000868
:100080002D1100082D1100082D1100082D11000858
:100090002D1100082D1100082D1100082D11000848
:1000A0002D1100082D1100082D1100082D11000838
:1000B0002D1100082D1100082D1100082D11000828
:1000C0002D1100082D1100082D1100082D11000818
:1000D0002D1100082D1100082D1100082D11000808
:1000E0002D1100082D1100082D1100082D110008F8
:1000F0002D1100082D1100082D1100082D110008E8
:100100002D1100082D1100082D1100082D110008D7
:100110002D1100082D1100082D1100082D110008C7
:100120002D1100082D1100082D1100082D110008B7
:100130002D1100082D1100082D1100082D110008A7
:100140002D1100082D1100082D1100087110000854
:100150002D1100082D1100082D1100082D11000887
:100160002D1100082D1100082D1100082D11000877
:100170002D1100082D1100082D11000800000000AD
:080180002D1100082D110008EB
:100190000348044B834202D0034B03B11847704716
:1001A0003806002038060020000000000548064BF5
:1001B0001B1AD90F01EBA301491002D0034B03B165
:1001C000184770473806002038060020000000005D
:1001D00010B5064C237843B9FFF7DAFF044B13B18F
:1001E0000448AFF300800123237010BD38060020BF
:1001F000000000009C67000808B5044B1BB10449CF
:100200000448AFF30080BDE80840CFE700000000DD
:100210003C0600209C67000853B94AB9002908BF72
:1002200000281CBF4FF0FF314FF0FF3000F06AB9DB
:10023000ADF1080C6DE904CE00F006F8DDF804E03D
:10024000DDE9022304B070472DE9F047089D0E4612
:1002500004460F46002B4AD194468C45B2FA82F2EE
:1002600060D942B1C2F12003974020FA03F30CFA9F
:1002700002FC1F4394404FEA1C4E1FFA8CF6B7FB5A
:10028000FEF1230C0EFB117743EA074301FB06F056
:1002900098420AD91CEB030301F1FF3780F0158166
:1002A000984240F21281023963441B1AA4B2B3FB94
:1002B000FEF00EFB103344EA034400FB06F6A642B0
:1002C0000AD91CEB040400F1FF3380F00081A64240
:1002D00040F2FD806444023840EA0140A41B002142
:1002E0001DB1D4400023C5E90043BDE8F0878B422F
:1002F00005D90DB1C5E9000100210846F5E7B3FABB
:1003000083F1002946D1B34202D3824200F2F58044
:10031000841A66EB030201201746002DE5D0C5E9DB
:100320000047E2E7002A40F09380A1EB0C034FEA7C
:100330001C471FFA8CFE0121B3FBF7F607FB1630B2
:10034000230C43EA00430EFB06F0984208D91CEB4D
:10035000030306F1FF3802D2984200F2D0804646ED
:100360001B1AA4B2B3FBF7F007FB103344EA0344B3
:100370000EFB00FEA64508D91CEB040400F1FF3378
:1003800002D2A64500F2B6801846A4EB0E0440EA5D
:100390000640A5E7C1F120078B4022FA07FC4CEA92
:1003A000030C06FA01FE20FA07F426FA07F344EAE2
:1003B0000E0400FA01F84FEA1C404FEA1449B3FB5F
:1003C000F0FE1FFA8CF600FB1E3349EA03430EFBD6
:1003D00006F9994502FA01F20BD91CEB03030EF161
:1003E000FF3A80F08580994540F28280AEF1020E9E
:1003F0006344A3EB0909A4B2B9FBF0F300FB139922
:1004000044EA094403FB06F6A64208D91CEB04049F
:1004100003F1FF3068D2A64266D9023B644443EA46
:100420000E40A41BA0FB02E6B4427346B14652D371
:100430004FD05DB1B8EB030264EB090404FA07F78F
:1004400022FA01F31F43CC40C5E9007400214CE7B8
:10045000C2F1200120FA01F30CFA02FC26FA01F1A4
:10046000964033434FEA1C471FFA8CFEB1FBF7F06E
:1004700007FB1016190C41EA064100FB0EF68E42EE
:1004800004FA02F408D91CEB010100F1FF382DD267
:100490008E422BD902386144891B9BB2B1FBF7F61F
:1004A00007FB161143EA014306FB0EF1994208D9F6
:1004B0001CEB030306F1FF3814D2994212D9023E15
:1004C00063445B1A46EA004136E73946EDE61846D2
:1004D00002E7F045ADD2BEEB020366EB0C06013835
:1004E000B146A6E74646ECE7034698E74046D3E721
:1004F000D6467EE76444023847E708460DE7023EE9
:1005000063442DE7704700BF830730B547D0541EC2
:10051000002A3ED0CAB2034601E0013C39D303F8B9
:10052000012B9D07F9D1032C2CD9CDB205EB052564
:100530000F2C05EB054535D9A4F1100222F00F0C64
:1005400003F1100EE6444FEA121C1A46C2E90055A8
:10055000C2E9025510327245F8D10CF1010214F0D3
:100560000C0F03EB021204F00F0C13D0ACF10403D8
:1005700023F003030433134442F8045B9342FBD19A
:100580000CF003042CB1C9B21C4403F8011BA342B4
:10059000FBD130BD64461346002CF4D1F9E7034685
:1005A0001446C0E71A46A446E0E700BF014B1868AE
:1005B000704700BF00000020844641EA000313F0AA
:1005C00003036DD1403A41D351F8043B40F8043B5A
:1005D00051F8043B40F8043B51F8043B40F8043B1D
:1005E00051F8043B40F8043B51F8043B40F8043B0D
:1005F00051F8043B40F8043B51F8043B40F8043BFD
:1006000051F8043B40F8043B51F8043B40F8043BEC
:1006100051F8043B40F8043B51F8043B40F8043BDC
:1006200051F8043B40F8043B51F8043B40F8043BCC
:1006300051F8043B40F8043B51F8043B40F8043BBC
:1006400051F8043B40F8043B403ABDD2303211D35C
:1006500051F8043B40F8043B51F8043B40F8043B9C
:1006600051F8043B40F8043B51F8043B40F8043B8C
:10067000103AEDD20C3205D351F8043B40F8043B5C
:10068000043AF9D2043208D0D2071CBF11F8013B5A
:1006900000F8013B01D30B8803806046704700BF20
:1006A000082A13D38B078DD010F003038AD0C3F12F
:1006B0000403D21ADB071CBF11F8013B00F8013B11
:1006C00080D331F8023B20F8023B7BE7043AD9D3D0
:1006D000013A11F8013B00F8013BF9D20B780370A5
:1006E0004B7843708B78837060467047194B1B685A
:1006F00083422ED0416C70B5054681B100268C59DD
:100700003CB121462468284600F0C4F8002CF8D1FA
:10071000696C0436802EF2D1284600F0BBF8A96B34
:1007200011B1284600F0B6F82C6C34B1214624688B
:10073000284600F0AFF8002CF8D1E96C11B128463A
:1007400000F0A8F86B6B1BB12846BDE87040184755
:1007500070BD70470000002070B50F4B0F4DAB42CD
:10076000A3EB050607D0B610002455F8043B01346E
:100770009847A642F9D806F011F8094D094B5E1BBF
:10078000AB424FEAA60606D0002455F8043B0134DC
:100790009847A642F9D870BDC4680008C46800082C
:1007A000C4680008CC680008002301461A461846B1
:1007B00000F07AB938B5074D074C2C1BA41005D0B2
:1007C000013C55F8043D9847002CF9D1BDE838406C
:1007D00005F0EABFD0680008CC6800082DE9F843AE
:1007E00006460820894600F051F9DFF8A480054646
:1007F000304600F08BF9D8F808305F6827F003071F
:10080000A7F11104A4EB09042C44B4FBF5F4013C5A
:1008100005FB04F4A54208DC0021304600F07AF91B
:10082000D8F808303B44984205D0304600F070F9C3
:100830000020BDE8F8836142304600F06BF90130DA
:100840000FD0114AD8F808303F1B47F001075F600E
:10085000136830461B1B136000F05AF90120BDE8F5
:10086000F8830021304600F055F9D8F80820831AA3
:100870000F2BDADD43F001035360044B02491B6880
:10088000C01A0860D1E700BF98070020300500209B
:100890002801002000297CD02DE9F0410C4680463B
:1008A00000F034F954F8043C754FA4F1080523F026
:1008B00001016818BE684268864222F0030200F017
:1008C0008380DE07426000EB020C33D454F8084CFE
:1008D000DCF804302D1B2144AC6807F1080C64459A
:1008E00003F0010364D0D5F80CE0C4F80CE0CEF8B6
:1008F0000840002B00F0818041F001036B60016033
:10090000B1F5007F22D27868CB0801224909013372
:100910008A40024357F833107A6007EBC302083A63
:10092000C5E9021247F83350CD604046BDE8F041BA
:1009300000F0EEB8DCF80430DB072BD541F0010302
:10094000B1F5007F44F8043C0160DCD3B1F5206FC1
:100950004FEA512353D28B0903F1390003F13802D6
:10096000C300F818FB580838984203D161E09B682F
:10097000984204D05A6822F003028A42F7D8D86815
:10098000C5E902308560DD604046BDE8F04100F019
:10099000BFB87047114407F1080C836863453FD026
:1009A000C268DA60936041F001036B606950A7E7A9
:1009B000002B5FD10A44D0E90213CB60996042F06A
:1009C00001036B60AA50B0E7DB070A4407D454F870
:1009D000083CED1A1A44D5E90213CB60996042F045
:1009E00001036B60274BBD601B6893429DD8264B6B
:1009F00040461968FFF7F2FE97E71144CDE7142B44
:100A000008D9542B1DD80B0B03F16F0003F16E02B4
:100A1000C300A6E703F15C0003F15B02C300A0E79B
:100A200041F00103C7E90455C5E902CC6B60695088
:100A30007BE779689210012404FA02F20A437A6093
:100A40009EE7B3F5AA7F06D8CB0B03F1780003F13C
:100A50007702C30085E740F25452934206D88B0CCC
:100A600003F17D0003F17C02C3007AE74FF47E734B
:100A70007E2276E741F001036B60016055E700BF1D
:100A8000280100203405002094070020082802D106
:100A90004FF48050704708B5FFF788FD16230360B8
:100AA0004FF0FF3008BD00BF70B4164D2C681CB36A
:100AB00065681F2D23DC38B9AB1C0135656044F82F
:100AC0002310002070BC704704EB850C0228CCF882
:100AD0008820D4F888614FF0010202FA05F246EA54
:100AE0000206C4F88861CCF80831E5D1D4F88C311D
:100AF0001343C4F88C31DFE7034C2C60D8E74FF088
:100B0000FF30DFE7C8070020CC070020704700BF98
:100B1000704700BF38B5074D0022044608462A60DA
:100B200000F0AEFA431C00D038BD2B68002BFBD080
:100B3000236038BD5406002010B500224FF47041E8
:100B4000384800F0D4FC16E0364C01224FF4005136
:100B5000204600F0CCFC00224FF45041204600F02B
:100B6000C6FC314B1B68042B50D001212F4800F0EC
:100B7000B7FC0028F9D001212C4800F0B1FC002876
:100B8000F9D1322000F026FB0121284800F0A8FC12
:100B9000254A1368013313600028E2D1032BE0D803
:100BA00001A252F823F000BF490B0008B90B00085E
:100BB000D50B0008F10B00081A4C01224FF48051AC
:100BC000204600F094FC00224FF46041204600F0E3
:100BD0008EFCC6E7134C01224FF48041204600F002
:100BE00086FC00224FF43041204600F080FCB8E73C
:100BF0000C4C01224FF40041204600F078FC00220A
:100C00004FF4E041204600F072FCAAE7064B4FF09B
:100C1000FF321A6000224FF47041024800F067FC76
:100C2000A3E700BF000C024038050020000002408E
:100C300008B505F061FB012003F037FDFBE708B5BF
:100C4000012003F032FDFBE708B5FFF775FF6420D4
:100C500003F02BFDF9E770477047000008B50B4A19
:100C600000210B4803F0C2FC0A4B18600A4A00211D
:100C70000A4803F0BBFC0A4B18600A4A00210A48E4
:100C800003F0B4FC094B186008BD00BF8068000881
:100C9000310C0008640900205C680008490C000859
:100CA00060090020386800083F0C00085C0900203B
:100CB0002DE9F04F8DB000240794089409940A940C
:100CC0000B9401946B4B1A6B42F010021A631A6B6F
:100CD00002F010020192019A02941A6B42F004028F
:100CE0001A631A6B02F004020292029A03941A6BBE
:100CF00042F080021A631A6B02F080020392039A98
:100D000004941A6B42F001021A631A6B02F001029A
:100D10000492049A05941A6B42F002021A631A6B49
:100D200002F002020592059A06941A6B42F008023C
:100D30001A631B6B03F008030693069BDFF83C91D4
:100D400022460821484600F0D2FB4B4F01221146B3
:100D5000384600F0CCFBDFF828A122464FF2100104
:100D6000504600F0C4FB0825079501260896099413
:100D70000A9407A9484600F0BDFA07960896099418
:100D80000A9407A9384600F0B5FA07950225089598
:100D900009940A944FF0050BCDF82CB007A93846FA
:100DA00000F0A8FA07964FF4901308930994DFF81F
:100DB000D48007A9404600F09DFA0795089409944D
:100DC00007A9404600F096FA102307930895099466
:100DD0000A9406230B9307A9404600F08BFAE02300
:100DE0000793089509940A94CDF82CB007A94046BA
:100DF00000F080FA042307930894099408F58068AA
:100E000007A9404600F076FA4FF4806307930895EF
:100E100009940A94CDF82CB007A9404600F06AFA6C
:100E20004FF210030793089609940A9407A95046B5
:100E300000F060FA4FF4A4530793089509940A94BC
:100E400006230B9307A9384600F054FA2023079392
:100E50000894099407A9504600F04CFA07954FF4FE
:100E600090130893099407A9484600F043FA0DB07F
:100E7000BDE8F08F00380240000802400010024038
:100E8000000C02400000024008B50B480B4B036009
:100E90000B4B436000238360C3604FF480420261C8
:100EA00043618361C361036200F028FB00B908BDA0
:100EB00000F040F8FBE700BF680900200054004044
:100EC000801A060030B589B000230393049305937C
:100ED000069307930268144B9A4201D009B030BDC3
:100EE00000250195114C236B43F002032363236B10
:100EF00003F002030193019B4FF410730393122339
:100F00000493012305930423079303A9084800F0E1
:100F1000F1F90295236C43F400132364236C03F46A
:100F200000130293029BD9E70054004000380240AE
:100F30000004024072B6FEE700B595B030220021F1
:100F400008A8FFF7E1FA002303930493059306939F
:100F500007930193214A116C41F080511164126C86
:100F600002F080520192019A02931D4B1A6842F4DA
:100F700080421A601B6803F480430293029B0123A2
:100F800008934FF48033099302230E934FF48002A9
:100F90000F92082210924FF4A87211921293072315
:100FA000139308A801F0C4F998B90F2303930223FF
:100FB0000493002305934FF4A05306934FF48053FA
:100FC0000793052103A801F01DFC20B915B05DF8B9
:100FD00004FBFFF7AFFFFFF7ADFF00BF0038024093
:100FE0000070004008B500F0C9F8FFF7A5FFFFF753
:100FF0005FFEFFF749FF05F07FF903F0C9FAFFF73D
:101000002DFE03F0D7FAFEE700B583B00022009270
:101010000D4B596C41F480415964596C01F4804185
:10102000009100990192196C41F0805119641B6C78
:1010300003F080530193019B0F216FF0010000F03A
:1010400031F903B05DF804FB00380240FEE7FEE72B
:10105000FEE7FEE7FEE7704708B500F0A9F804F0E8
:10106000C9FE012800D108BD03F064FCFBE70000C5
:1010700008B5024800F051FE08BD00BF70690020AD
:1010800010B503460C4A0D490D48006840B10C48A4
:1010900000680344521A934206D8094A136010BDEF
:1010A0000748084C0460F2E7FFF780FA0C2303605E
:1010B0004FF0FF30F3E700BF000002200004000003
:1010C000BC090020586E0020034AD2F8883043F44F
:1010D0007003C2F88830704700ED00E0DFF834D0CC
:1010E000FFF7F2FF0C480D490D4A002302E0D458E7
:1010F000C4500433C4188C42F9D30A4A0A4C002362
:1011000001E013600432A242FBD3FFF725FBFFF797
:1011100069FF704700000220000000203806002010
:10112000D068000838060020546E0020FEE700005A
:1011300010B504460E4B1A784FF47A73B3FBF2F3F2
:101140000C4A1068B0FBF3F000F0C0F868B90F2C3F
:1011500001D901200AE0002221464FF0FF3000F0C3
:10116000A1F8054B1C60002000E0012010BD00BF6D
:10117000400500203C0500204405002008B50B4B2D
:101180001A6842F400721A601A6842F480621A60A7
:101190001A6842F480721A60032000F071F80F2080
:1011A000FFF7C6FFFFF730FF002008BD003C0240FC
:1011B000034A1168034B1B780B441360704700BF50
:1011C000C009002040050020014B1868704700BF8F
:1011D000C009002038B50446FFF7F6FF0546B4F114
:1011E000FF3F02D0044B1B781C44FFF7EDFF401B70
:1011F000A042FAD338BD00BF40050020002807DB1D
:1012000000F01F02400901239340024A42F82030B7
:10121000704700BF00E100E0002808DB0901C9B207
:1012200000F1604000F5614080F80013704700F065
:101230000F000901C9B2014B1954704714ED00E0C9
:1012400000B500F00700C0F1070CBCF1040F28BF87
:101250004FF0040C031D062B0FD9C31E4FF0FF3EA9
:101260000EFA0CF021EA000199400EFA03FE22EA80
:101270000E0241EA02005DF804FB0023EEE70000E5
:10128000074AD36823F4E0631B041B0C000200F43C
:10129000E060034343F0BF6343F40033D36070471F
:1012A00000ED00E010B50446054BD868C0F30220FD
:1012B000FFF7C6FF01462046FFF7AEFF10BD00BF97
:1012C00000ED00E008B5FFF799FF08BD0138B0F167
:1012D000807F0BD24FF0E0235861054AF02182F85D
:1012E00023100020986107221A617047012070477F
:1012F00000ED00E000230F2B00F2E98070B582B012
:1013000065E085684FEA430E032404FA0EF425EAEB
:101310000405CC6804FA0EF42C438460446824EA83
:1013200002044A68C2F300129A40224342605CE021
:10133000DC08083450F8242003F00705AD004FF016
:101340000F0E0EFA05FE22EA0E0E0A69AA4042EAC4
:101350000E0240F824205CE0072200E0002202FA9E
:101360000EF22A4302345A4D45F82420594A946813
:101370006FEA0C0224EA0C054E6816F4801F01D0B7
:101380004CEA0405534CA560E46802EA04054E6883
:1013900016F4001F01D04CEA04054E4CE560646869
:1013A00002EA04054E6816F4003F01D04CEA040539
:1013B000484C6560246822404D6815F4803F01D098
:1013C0004CEA0402434C226001330F2B7DD80122EA
:1013D0009A400C6804EA020C32EA0404F4D14C6826
:1013E00004F00304013C012C8BD94A6802F003028B
:1013F000032A09D0C4685D000322AA4024EA02043B
:101400008A68AA402243C2604A6802F00302022AA4
:101410008ED004684FEA430E032202FA0EF224EA49
:1014200002044A6802F0030202FA0EF2224302604A
:101430004A6812F4403FC7D000220192264A546CF9
:1014400044F480445464526C02F480420192019A44
:101450009C08A51C1E4A52F8255003F0030E4FEAC3
:101460008E0E0F2202FA0EF225EA02051B4A904266
:101470003FF474AF02F5806290421AD002F58062A8
:10148000904218D002F58062904216D002F5806238
:10149000904214D002F58062904212D002F5806230
:1014A000904210D002F5806290423FF455AF08227E
:1014B00055E7012253E7022251E703224FE70422B6
:1014C0004DE705224BE7062249E702B070BD7047A1
:1014D00000380140003C014000380240000002405A
:1014E0000369194201D001207047002070470AB1FA
:1014F000816170470904816170470000002800F095
:10150000CC8070B5044690F83D30002B77D0242372
:1015100084F83D302268136823F0010313602268C9
:10152000136843F4004313602268136823F40043F4
:10153000136001F01DFA62685A4B9A4264D85A4B04
:1015400098428CBF00230123002B40F0A88057490C
:10155000A1FB00318B0C25686A6822F03F0242EA49
:1015600091426A6021680A6A22F03F0266684D4D26
:10157000AE424FD8013313430B622168CA6922F48B
:101580004F4222F0FF026568464B9D424CD8431EF5
:101590006D00B3FBF5F3013340F6FC70034278D0E5
:1015A000C3F30B031A43CA6121680B6823F0C0031D
:1015B000E269206A024313430B6021688B6823F4BD
:1015C000034323F0FF032269E068024313438B6067
:1015D0002168CB6823F0FF036269A06902431343CB
:1015E000CB602268136843F001031360002020647D
:1015F000202384F83D30206384F83E0070BD80F8DD
:101600003C30FFF75FFC82E7294B98428CBF0023F8
:10161000012399E74FF4967505FB03F3254DA5FBD0
:1016200003539B090133A6E7A668BEB9431E05EB29
:10163000450CB3FBFCF30133C3F30B03B3FA83F3A1
:101640005B0943BBC6B9431E05EB4505B3FBF5F388
:101650000133C3F30B0343F40043A3E7431E05EB3D
:10166000850C0CEB8C0CB3FBFCF30133C3F30B03C5
:10167000B3FA83F35B09E4E7431E05EB850505EB4D
:101680008505B3FBF5F30133C3F30B0343F4404388
:1016900088E7042386E7012384E7012070470120BF
:1016A000ACE700BFA08601007F841E0083DE1B43E1
:1016B000FF083D00D34D62102DE9F04383B0D0F810
:1016C000008001EBC10300EB83039A6A5B6A9A42D4
:1016D00054D807460C469B1A01EBC10200EB82026C
:1016E000D2699A4200D31A4602F103094FEA9909D6
:1016F00015E006F103094FEA9909BB7904EBC4052B
:1017000007EB8505296A0093B3B2E2B2404601F0C7
:1017100072FC2B6A33442B62AB6A3344AB6208EB36
:10172000441303F510639B699BB24B4512D304EB42
:10173000C40307EB83039A6A5B6A9A420AD24BB1ED
:101740009B1A04EBC40207EB8202D6699E42D0D3F7
:101750001E46CEE704EBC40307EB83077A6ABB6A35
:101760009A420FD804F00F040122A240D8F834386E
:1017700023EA0203C8F83438002000E0012003B057
:10178000BDE8F0830020FAE730B583B000287AD0B6
:101790000446056890F89534C3B1032384F8953462
:1017A000B5F1A04F17D0206801F0D8F9237C8DF84F
:1017B0000030231D0ECB206801F00FF970B1022319
:1017C00084F895340125284603B030BD80F8943460
:1017D00004F07EFEE1E70023A371E4E70021206826
:1017E00001F01FFE024608B9034617E0022384F801
:1017F00095340125E7E703EBC30104EB81010120E8
:1018000048750B75CB8500200876C861086203EB2C
:10181000C30104EB810148620133DBB220799842B5
:10182000E9D816E002EBC20304EB8303002183F83E
:10183000551283F8542283F85812C3F85C12C3F887
:10184000601202EBC20304EB8303C3F8641201329B
:10185000D2B29042E6D8237C8DF80030231D0ECB07
:10186000206801F0D1F9054620B1022384F89534AF
:101870000125A8E700236374012384F895342068C8
:1018800001F08EFD9FE701259DE7036890F8942401
:10189000012A1AD010B50446012280F89424DA688F
:1018A00012F0400F02D0427B012A09D0206801F0DB
:1018B0004FF9206801F066FD002084F8940410BD03
:1018C0009A6B42F480329A63F0E70220704700007E
:1018D00070B504460D460068066C00EB411303F535
:1018E00030639A68A179012911D038498E4256D0C7
:1018F0003DB905EBC50304EB8303D3F86432002B39
:101900005ED0E9B2204604F035FE002070BD12F032
:10191000080F09D02E498E42F7D912F4004FF4D0A7
:101920004FF400429A60F0E712F0200F02D020221C
:101930009A60EAE712F0280FE7D125498E4206D9CE
:1019400012F4004F03D04FF400429A60DDE705EB3C
:10195000C50204EB8202D2F874121B69C3F31203AE
:10196000CB1AC2F868327DB905EBC50204EB8202DE
:10197000D2F864226AB105EBC50204EB8202D2F808
:1019800060121944C2F86012E9B2204604F0F2FD78
:10199000BBE704F29C42012101F082FDF4E712F45E
:1019A000004F03D04FF400429A60AEE712F0200FD0
:1019B00001D020229A60E9B2204604F0DBFDA4E7C2
:1019C00004F29C42002101F06BFD9AE70A31544F6A
:1019D0000A30544F38B5044603681D6C03EB4113BD
:1019E000D3F8081B0E4A954207D903F5306311F46A
:1019F000004F02D04FF400429A60204604F0B2FD3E
:101A0000074B9D4202D9A379012B01D0002038BD9C
:101A100004F29C420121206801F042FDF6E700BF7C
:101A20000A30544F90F89434012B0CD010B5044672
:101A3000012380F894344174006801F093FC002085
:101A400084F8940410BD0220704738B505468C46D2
:101A500011F0800F2BD101F00F0E0EEBCE04A4007D
:101A600004F514740444211D0EEBCE0E00EB8E0E13
:101A700000208EF855020CF00F0C81F800C0C2F364
:101A80000A028A600B714A780AB1A1F81AC0022BC7
:101A90001CD095F89434012B1BD0012385F8943485
:101AA000286801F08CF9002085F8940438BD01F015
:101AB0000F0000EBC001890010312944043100EB14
:101AC000C00005EB800001244475D4E700234B716E
:101AD000DFE70220EAE710B504460A4611F0800F5E
:101AE00020D101F00F0000EBC0039B0003F514733D
:101AF0002344191D00EBC00004EB8000002380F894
:101B0000553202F00F020A7094F89434012B18D069
:101B1000012384F89434206801F09EF9002084F8B1
:101B2000940410BD01F00F0000EBC0039B001033C4
:101B30002344191D00EBC00004EB80000123437512
:101B4000DFE70220EDE710B5144601F00F0C0CEBB7
:101B5000CC01890001F51471014404310CEBCC0E69
:101B600000EB8E0ECEF86022CEF864320023CEF861
:101B700068328EF855328EF854C28279012A04D028
:101B8000006801F04FFA002010BDCEF87042F7E770
:101B900001F00F0101EBC10100EB8100D0F86802F8
:101BA000704710B5144601F00F0C0CEBCC01890006
:101BB0001031014404310CEBCC0E00EB8E0ECEF84C
:101BC0002020CEF824300023CEF8283001238EF8D0
:101BD00015308EF814C082799A4204D0006801F062
:101BE00021FA002010BDCEF83040F7E738B501F0FB
:101BF0000F050279AA4238D304460B4611F0800F34
:101C00001FD101EBC101890001F5147101440431B8
:101C100003EBC30300EB8303002283F85522012367
:101C20008B700D7094F89434012B20D0012384F82C
:101C30009434206801F03BFB85B1002084F89404C3
:101C400038BD05EBC501890010310144043105EBB5
:101C5000C50300EB830301225A75E0E704F29C42BE
:101C6000A179206801F01CFCE7E70120E8E70220E9
:101C7000E6E701F00F0302799A4230D310B504462B
:101C800011F0800F1ED103EBC301890001F514711F
:101C90000144043103EBC30200EB8202002082F80E
:101CA000550200228A700B7094F89434012B18D0DE
:101CB000012384F89434206801F026FB002084F886
:101CC000940410BD03EBC3018900103101440431B9
:101CD00003EBC30200EB820201205075E1E7012013
:101CE00070470220EDE708B511F0800F0CD101F02C
:101CF0000F0101EBC101890001F5147101440431A8
:101D0000006801F019F908BD01F00F0101EBC101F4
:101D10008900103101440431F2E72DE9F04F83B01E
:101D200004460568284601F078FB10B103B0BDE811
:101D3000F08F0646206801F041FB0028F6D005F53B
:101D40000067BB68C3F30D23C4F8D434206801F0E6
:101D500035FB10F0020F04D02268536903F0020330
:101D60005361206801F02AFB10F0100F15D0226893
:101D7000936923F010039361D5F8208008F00F09D0
:101D800008F4F013B3F5802F4CD0B3F5402F6FD08B
:101D90002268936943F010039361206801F00EFB01
:101DA00010F4002F76D1206801F008FB10F4802F8A
:101DB00040F0E080206801F001FB0028C0F2618162
:101DC000206801F0FBFA10F4006F09D0BB6813F033
:101DD000010F40F06E812268536903F40063536180
:101DE000206801F0EBFA10F4805F40F06681206813
:101DF00001F0E4FA10F4005F40F0B381206801F0D4
:101E0000DDFA10F0080F40F0C481206801F0D6FA26
:101E100010F0800F00F0D781AB6923F08003AB6135
:101E20000126C0E147F6F07318EA030FB0D04FEA7D
:101E3000181A4FEAC903019309EBC90B04EB8B0B8A
:101E4000C8F30A12DBF86012284601F00DFADBF83D
:101E50006032CAF30A0A5344CBF86032DBF86832C6
:101E6000019A4A4404EB82025344C2F868328FE775
:101E7000082204F29C41284601F0F6F909EBC90357
:101E800004EB8303D3F86822C8F30A184244C3F86A
:101E900068227DE7206801F095FA8046B14635E07A
:101EA00005EB49130122C3F8082B49462046FFF7EA
:101EB0000FFD3CE005EB49130822C3F8082B494607
:101EC0002046FFF787FD35E009EBC90304EB8303E8
:101ED00093F85732012B41D005EB49130222C3F886
:101EE000082B1AF0200F04D005EB49132022C3F869
:101EF000082B1AF4005F05D005EB49134FF400528C
:101F0000C3F8082B09F101094FEA5808B8F1000F8E
:101F10003FF449AF18F0010FF4D05FFA89FB59463E
:101F2000206801F05FFA824610F0010FB8D11AF074
:101F3000080FBFD11AF0100F04D005EB491310227F
:101F4000C3F8082B1AF0020FCBD06B6913F0800F87
:101F5000BAD07B6843F480637B60B5E709EBC903C3
:101F600004EB8303002283F857225946204604F0ED
:101F700051FBB1E7206801F02DFA8046B14625E01B
:101F80005946204604F002FB1AF0080F04D005EB76
:101F900049130822C3F808291AF0100F04D005EBE2
:101FA00049131022C3F808291AF0400F04D005EB9A
:101FB00049134022C3F808291AF0020F40D11AF041
:101FC000800F59D109F101094FEA5808B8F1000F03
:101FD0003FF4F0AE18F0010FF4D05FFA89FB5946D8
:101FE000206801F008FA824610F0010FCCD009F009
:101FF0000F02012101FA02F27B6B23EA02037B63E9
:1020000005EB4913C3F80819A3798B42B8D109EB42
:10201000C90304EB83031A6AD9690A441A62B9F145
:10202000000FADD109EBC90304EB83035B6A002BFE
:10203000A6D104F29C420121206801F031FA9FE709
:102040004946284600F090FD09EBC90304EB8303E1
:10205000DB7D012B05D005EB49130222C3F80829CB
:10206000ADE709EBC90304EB83030022DA75594697
:10207000204604F0D5FAEEE749462046FFF71CFB60
:10208000A0E77B6823F001037B6094F8CC34012B3C
:1020900008D0204604F0B8FA2268536903F00043E0
:1020A00053618DE6002184F8CC14204600F03FF9FE
:1020B000F2E7204604F090FA8DE67B6823F00103F6
:1020C0007B601021206800F04FFD1AE005EB4613FD
:1020D0004FF67F31C3F80819D3F8002922F4001213
:1020E000C3F80029C3F8081BD3F8002B22F4001210
:1020F000C3F8002BD3F8002B42F00062C3F8002B8A
:1021000001362379B342E1D8FB6943F00113FB6147
:10211000E37BDBB1D7F8843043F00B03C7F884309E
:102120007B6C43F00B037B64D5F8003823F4FE632B
:10213000C5F8003804F29C42A179206801F0B0F99A
:102140002268536903F48053536150E67B6943F47A
:10215000005343F02B037B613B6943F00B033B616E
:10216000E2E7206801F08EF9206800F017FEE071C8
:10217000266800F0F7FB0146E279304600F076FC75
:10218000204604F014FA2268536903F400535361A3
:1021900034E6204604F005FA2268536903F0080388
:1021A000536132E601362379B3420CD906EBC603FC
:1021B00004EB830393F85732012BF3D1F1B220469D
:1021C000FFF791FDEEE7206801F0F8F810F4801FAA
:1021D00025D1206801F0F2F810F4001F59D0012336
:1021E00026E001362379B3421BD905EB4613D3F819
:1021F000002906EBC60304EB83031B7E012BF0D101
:10220000002AEEDA06EBC60304EB83030122DA753B
:1022100066F07F01C9B22046FFF765FDE1E70126C0
:10222000E0E72268536903F480135361D1E7013377
:1022300022799A4228D905EB4312D2F8001B03EB0E
:10224000C30204EB820292F85822012AEFD100293E
:10225000EDDA01F48031D4F8D42402F00102914285
:10226000E5D103EBC30204EB8202012182F857128D
:10227000AA6942F08002AA616A6912F0800FD6D181
:102280007B6843F400737B602268536903F4001396
:102290005361206801F092F810F0804F10D120684F
:1022A00001F08CF810F0040F3FF440AD23685D6836
:1022B00015F0040F0DD1226853682B43536035E5A8
:1022C000204604F0B3F92268536903F08043536158
:1022D000E5E7204604F0B0F9EDE710B40468606A61
:1022E00031B940EA0240A06200205DF8044B70471B
:1022F0008C46A36A00EB1340002308E003F1400181
:1023000004EB8101496800EB11400133DBB20CF1B1
:10231000FF318B42F2D340EA02400CF13F0104EB63
:1023200081046060E0E703685962002070477047ED
:10233000002800F0E08170B582B00446036813F015
:10234000010F3BD09F4B9B6803F00C03042B2CD058
:102350009C4B9B6803F00C03082B21D06368B3F5FA
:10236000803F4FD0B3F5A02F52D0964B1A6822F47D
:1023700080321A601A6822F480221A606368002B87
:1023800050D0FEF721FF05468E4B1B6813F4003F2B
:1023900014D1FEF719FF401B6428F5D90320B1E1E1
:1023A000884B5B6813F4800FD8D0864B1B6813F4FE
:1023B000003F03D06368002B00F09F81236813F077
:1023C000020F54D07F4B9B6813F00C0F3ED07D4B17
:1023D0009B6803F00C03082B33D0E368002B68D014
:1023E000794B01221A60FEF7EFFE0546754B1B681C
:1023F00013F0020F54D1FEF7E7FE401B0228F5D977
:1024000003207FE16F4A136843F480331360B5E71C
:102410006C4B1A6842F480221A601A6842F48032C7
:102420001A60ABE7FEF7D0FE0546664B1B6813F457
:10243000003FC3D0FEF7C8FE401B6428F5D9032037
:1024400060E1604B5B6813F4800FC6D15D4B1B6885
:1024500013F0020F03D0E368012B40F05081594A7A
:10246000136823F0F803216943EAC103136023686A
:1024700013F0080F42D063696BB3534B0122C3F8CA
:10248000802EFEF7A1FE05464E4B5B6F13F0020F48
:1024900034D1FEF799FE401B0228F5D9032031E123
:1024A000484A136823F0F803216943EAC103136023
:1024B000DDE7454B00221A60FEF786FE0546414BDC
:1024C0001B6813F0020FD2D0FEF77EFE401B0228DD
:1024D000F5D9032016E13C4B0022C3F8802EFEF70D
:1024E00073FE0546374B5B6F13F0020F06D0FEF705
:1024F0006BFE401B0228F5D9032003E1236813F08B
:10250000040F77D02F4B1B6C13F0805F33D1002367
:1025100001932C4B1A6C42F080521A641B6C03F02E
:1025200080530193019B0125284B1B6813F4807F86
:1025300023D0A368012B34D0052B38D0214B1A6F40
:1025400022F001021A671A6F22F004021A67A368C8
:10255000002B3DD0FEF738FE06461A4B1B6F13F0DA
:10256000020F46D1FEF730FE801B41F288339842BD
:10257000F3D90320C6E00025D6E7144A136843F4D4
:1025800080731360FEF720FE0646104B1B6813F4A1
:10259000807FCED1FEF718FE801B0228F5D90320DC
:1025A000B0E0084A136F43F001031367CFE7054B10
:1025B0001A6F42F004021A671A6F42F001021A679A
:1025C000C5E700BF003802400000474200700040ED
:1025D000FEF7FAFD0646524B1B6F13F0020F08D0B0
:1025E000FEF7F2FD801B41F288339842F3D90320B5
:1025F00088E0EDB9A369002B00F08380484A926817
:1026000002F00C02082A51D0022B17D0454B0022B1
:102610001A66FEF7D9FD0446414B1B6813F0007F94
:1026200042D0FEF7D1FD001B0228F5D9032069E056
:102630003B4A136C23F080531364DBE7394B0022D1
:102640001A66FEF7C1FD0546354B1B6813F0007F87
:1026500006D0FEF7B9FD401B0228F5D9032051E052
:10266000E369226A1343626A43EA8213A26A520848
:10267000013A43EA0243E26A43EA0263284A5360AA
:10268000284B01221A66FEF79FFD0446244B1B6867
:1026900013F0007F06D1FEF797FD001B0228F5D945
:1026A00003202FE000202DE000202BE0012B2BD079
:1026B0001B4B5B6803F48001E269914226D103F071
:1026C0003F02216A8A4223D1616A47F6C0721A40EA
:1026D000B2EB811F1ED103F44031A26A5208013AC5
:1026E000B1EB024F18D103F07063E26AB3EB026FF3
:1026F00014D1002006E001207047012002E00120F3
:1027000000E0002002B070BD0120FBE70120F9E7E6
:102710000120F7E70120F5E70120F3E70120F1E7C9
:10272000003802400000474208B5334B9B6803F075
:102730000C03042B5BD0082B5BD12F4B5A6802F0A3
:102740003F025B6813F4800F2CD02B4B5868C0F30A
:1027500088104FEA401CBCEB000C6EEB0E0E4FEAEB
:102760008E1343EA9C634FEA8C11B1EB0C0163EBCF
:102770000E03DB0043EA5173C90011EB000C43F177
:102780000003590200234FEA4C2041EADC51FDF7D7
:1027900043FD194B5B68C3F3014301335B00B0FB9E
:1027A000F3F008BD144B5868C0F388104FEA401C82
:1027B000BCEB000C6EEB0E0E4FEA8E1343EA9C63EB
:1027C0004FEA8C11B1EB0C0163EB0E03DB0043EA23
:1027D0005173C90011EB000C43F10003990200236F
:1027E0004FEA8C2041EA9C51FDF716FDD1E70348E2
:1027F000D7E70348D5E700BF0038024000127A004F
:102800000024F400002800F09B8070B50D460446BB
:102810004F4B1B6803F007038B4208D2CBB24C4AE4
:102820001370136803F007038B4240F08B8023681A
:1028300013F0020F17D013F0040F04D0454A936829
:1028400043F4E0539360236813F0080F04D0414A27
:10285000936843F4604393603E4A936823F0F00327
:10286000A1680B439360236813F0010F32D06368B3
:10287000012B21D09A1E012A25D9364A126812F05E
:10288000020F61D033498A6822F0030213438B6040
:10289000FEF79AFC06462F4B9B6803F00C03626818
:1028A000B3EB820F16D0FEF78FFC801B41F288330A
:1028B0009842F0D9032042E0264A126812F4003F01
:1028C000E0D101203BE0234A126812F0007FD9D109
:1028D000012034E01E4B1B6803F00703AB4207D90D
:1028E000EAB21B4B1A701B6803F00703AB422DD1F1
:1028F000236813F0040F06D0164A936823F4E053BC
:10290000E1680B439360236813F0080F07D0114A66
:10291000936823F46043216943EAC1039360FFF79E
:1029200003FF0C4B9B68C3F303130B4AD35CD840E3
:102930000A4B18600A4B1868FEF7FAFB002070BDBE
:10294000012070470120FAE70120F8E70120F6E7AF
:10295000003C024000380240AC6800083C05002002
:1029600044050020014B1868704700BF3C0500205B
:1029700008B5FFF7F7FF044B9B68C3F38223034AB4
:10298000D35CD84008BD00BF00380240A4680008EE
:1029900082B000230193019B01330193019BB3F1AA
:1029A000706F15D80369002BF5DA002301930369D2
:1029B00043F001030361019B01330193019BB3F1D8
:1029C000706F08D8036913F0010FF4D1002000E004
:1029D000032002B070470320FBE784B010B5044623
:1029E00003A880E80E009DF81130012B21D1A36BC4
:1029F00023F48033A363E36823F4840323F04003C8
:102A0000E360E36823F44013E3609DF81830012B82
:102A10000AD02046FFF7BCFF9DF80E30012B1CD0DA
:102A2000BDE8104004B07047E36843F48013E360EE
:102A3000EFE7E36843F04003E3602046FFF7A8FFB9
:102A40009DF8153023B9A36B43F48033A363E3E708
:102A5000A36B23F48033A363DEE7A36843F006038C
:102A6000A360A36843F02003A360D9E7022A0AD039
:102A70000922C36823F47053C360C36843EA822306
:102A8000C36000207047234B0B44234A93422FD945
:102A9000224B0B44224A93422CD9A1F57403A3F58F
:102AA0001053204A934227D9A1F18373A3F5E7433A
:102AB0001D4A934222D31D4B0B441D4A93421FD9FA
:102AC0001C4B0B441C4A93421CD31C4B0B441C4A0A
:102AD000934219D3A1F1B773A3F55853194A9342FE
:102AE00014D3194B0B44194A934211D20722C0E761
:102AF0000F22BEE70E22BCE70D22BAE70C22B8E790
:102B00000B22B6E70A22B4E70922B2E70822B0E7AF
:102B10000622AEE7405327FFFF340C00401E1BFF88
:102B20003F420F007F4F120020D6130060B6E5FE33
:102B30005FE3160000D3CEFE40771B00C05BB3FE00
:102B4000C091210020753800E05459FEE09C4100FE
:102B5000836843F00103836000207047836823F09B
:102B6000010383600020704782B000230193019B22
:102B700001330193019BB3F1706F15D80369002BEA
:102B8000F5DA00230193890141F020010161019BE5
:102B900001330193019BB3F1706F08D8036913F0FF
:102BA000200FF4D1002000E0032002B07047032082
:102BB000FBE782B000230193019B01330193019B4A
:102BC000B3F1706F13D80369002BF5DA002301937A
:102BD00010230361019B01330193019BB3F1706FDB
:102BE00008D8036913F0100FF4D1002000E003208F
:102BF00002B070470320FBE7D0F800381943C0F853
:102C0000001800207047000084B0F8B5044607A8FB
:102C100080E80E00002306E003F1400204EB82028C
:102C20000021516001330E2BF6D99DF8266006BBBA
:102C3000D4F8043843F00203C4F80438A36B43F417
:102C40000013A363A36B23F40023A363A36B23F4F8
:102C50008023A3630023C4F8003E9DF82130012B9C
:102C600015D19DF81F306BB900212046FFF7C4FF36
:102C700011E0A36B23F40013A363A36B43F40023BD
:102C8000A363E7E701212046FFF7B6FF03E0032136
:102C90002046FFF7B1FF10212046FFF765FF0546EC
:102CA00000B101252046FFF784FF00B1012504F59E
:102CB000006C0023CCF81030CCF81430CCF81C3069
:102CC0000AE0CBB94FF00060C2F8000900220A61A7
:102CD0004FF67F328A6001339DF81C10994210D95B
:102CE00004EB431202F51061D2F800090028E8DB7A
:102CF0000020C2F80009E9E74FF09040C2F800094F
:102D0000E4E700230AE0BBB14FF09047C2F8007B34
:102D1000002202614FF67F3282600133994210D95E
:102D200004EB431202F53060D2F8007B002FEADB9F
:102D30000027C2F8007BEBE74FF00067C2F8007B8A
:102D4000E6E7DCF8103023F48073CCF81030002371
:102D5000A3616FF0804363619DF81E301BB9A369C6
:102D600043F01003A361A2690B4B1343A3619DF8C9
:102D700022301BB1A36943F00803A361012E04D0E4
:102D80002846BDE8F84004B07047A36943F080438B
:102D900043F00403A361F3E700383C80D0F808381F
:102DA00003F00603022B04D0062B04D02BB900201D
:102DB000704702207047022070470F20704710B5FF
:102DC00091F800C04B78012B23D000F5006ED0F8AD
:102DD0001C380CF00F040122A24043EA0243C0F861
:102DE0001C3800EB4C10D0F8003B13F4004F0ED110
:102DF000D0F8003B8A68C2F30A02097942EA8142AC
:102E0000134343F0805343F40043C0F8003B0020D9
:102E100010BDD0F81C280CF00F0E03FA0EF39BB275
:102E20001343C0F81C3800EB4C10D0F8003913F4F1
:102E3000004FECD1D0F800398A68C2F30A02097950
:102E400042EA814242EA8C52134343F0805343F4F6
:102E50000043C0F80039DAE730B40B784A78012A29
:102E600026D000EB4313D3F8002B002A52DBD0F816
:102E70003C480A7802F00F024FF0010C0CFA02F203
:102E800024EA0242C0F83C28D0F81C28097801F056
:102E90000F010CFA01FC22EA0C42C0F81C28D3F8FE
:102EA000001B234A0A40C3F8002B002030BC7047A7
:102EB00000EB4313D3F80029002A1EDBD0F83C585E
:102EC0000A7802F00F02012404FA02F292B225EA13
:102ED0000202C0F83C28D0F81C28097801F00F0144
:102EE0008C40A4B222EA0402C0F81C28D3F80019CE
:102EF000104A0A40C3F80029D7E7D3F8002942F066
:102F00000062C3F80029D3F8002942F08042C3F8D8
:102F10000029D3E7D3F8002B42F00062C3F8002B5E
:102F2000D3F8002B42F08042C3F8002B9FE700BF8C
:102F30000078F3EF007833EC10B483B0024600233E
:102F40000193487801280BD00B7802EB4313D3F898
:102F5000000B00282DDB002003B05DF8044B704708
:102F60000B7802EB4313D3F80049002C01DB00205F
:102F7000F2E7D3F8004944F00064C3F800490B7845
:102F800002EB4313D3F8004944F08044C3F80049EE
:102F9000019B01330193019C42F210739C42DBD8E8
:102FA0000B7802EB4313D3F80039002BF0DB002041
:102FB000D2E7D3F8000B40F00060C3F8000B0B78A9
:102FC00002EB4313D3F8000B40F08040C3F8000B32
:102FD000019B01330193019842F21073984208D883
:102FE0000B7802EB4313D3F8003B002BF0DB0020FF
:102FF000B2E70120B0E710B59DF8084084B903336B
:103000004FEA930E4FF0000C08E000EB023303F59B
:10301000805351F8044B1C600CF1010CF445F4D3BF
:10302000002010BDF0B583B00C784B78012B2DD06B
:1030300000EB441C0CF530631D696FF312051D6134
:103040001D696FF3DC451D61002C40F0CE800C69DA
:103050000CB18C680C618C680C621D69C4F312049D
:103060002C431C611C6944F400241C61012A00F0FB
:10307000DF800B79012B00F0E180DCF8003B43F0AE
:103080000443CCF8003B002003B0F0BD0B6973BBD8
:1030900000EB4413D3F810596FF3DC45C3F8105913
:1030A000D3F8105945F40025C3F81059D3F8105936
:1030B0006FF31205C3F81059012A54D000EB4414E1
:1030C000D4F8003943F00443C4F800390B79012BDC
:1030D00072D00B69002BD6D0D0F83438097801F0C3
:1030E0000F0101228A401343C0F83438CBE700EBCC
:1030F000441303F510631D696FF312051D611D690B
:103100006FF3DC451D6184B90E698D68AE4200D94C
:103110000D611D6945F400251D611D690E69C6F329
:10312000120C45EA0C051D61C6E70D698E68354431
:10313000013DB5FBF6F51E691FFA85FC494F07EA0C
:10314000C54535431D610D79012DE6D11D6925F079
:10315000C0451D611D694FEA4C7C0CF0C04C45EA2E
:103160000C051D61D9E7CB691BB100EB4412C2F815
:1031700014390B79012B08D000EB4414D4F8003932
:1031800043F00443C4F800397DE7D0F8083813F45D
:10319000807F08D100EB4412D2F8003943F000538D
:1031A000C2F80039E8E700EB4412D2F8003943F0E6
:1031B0008053C2F80039DFE7D0F8083813F4807F75
:1031C0000CD1D4F8003943F00053C4F80039009210
:1031D0000B8A0A78C968FFF70EFF54E7D4F8003964
:1031E00043F08053C4F80039F1E70C6954B91C6905
:1031F0008D68C5F312052C431C611C6944F400243E
:103200001C6133E78D682C44013CB4FBF5F4A4B297
:1032100004FB05F50D621D69124E06EAC4442C43F9
:103220001C611C690D6AC5F312052C431C611DE766
:10323000CA68002A3FF41DAF5A611AE7D0F808386F
:1032400013F4807F06D1DCF8003B43F00053CCF848
:10325000003B12E7DCF8003B43F08053CCF8003B26
:103260000BE700BF0000F81F10B5844608464FEA80
:10327000920E02F00302002305E00CF5805109686C
:1032800040F8041B01337345F7D37AB10CF5805C29
:10329000DCF800400021CBB2DB0024FA03F300F895
:1032A000013B0131013A92B2002AF4D110BD0B78F2
:1032B0004A78012A14D000EB4310D0F8002B002AE2
:1032C00006DB2BB1D0F8003B23F08043C0F8003B75
:1032D000D0F8003B43F40013C0F8003B00207047D7
:1032E00000EB4310D0F80029002A06DB2BB1D0F800
:1032F000003923F08043C0F80039D0F8003943F496
:103300000013C0F80039E9E70B784A78012A0ED09B
:1033100000EB4310D0F8003B23F40013C0F8003B4F
:103320000B79023BDBB2012B15D90020704700EB73
:103330004310D0F8003923F40013C0F800390B799A
:10334000023BDBB2012BF0D8D0F8003943F08053B8
:10335000C0F80039E9E7D0F8003B43F08053C0F8EB
:10336000003BE2E7D0F8003823F4FE63C0F80038F1
:10337000D0F80038090101F4FE610B43C0F80038B1
:1033800000207047D0F8003E23F00303C0F8003E51
:10339000D0F8043823F00203C0F804380020704746
:1033A000D0F8003E23F00303C0F8003ED0F8043804
:1033B00043F00203C0F80438002070474269806976
:1033C00010407047D0F8183800F50060C069184008
:1033D000000C7047D0F8183800F50060C06918403C
:1033E00080B2704700EB4111D1F8082B00F5006066
:1033F000406910407047D0F81028D0F8343801F0F8
:103400000F0C23FA0CF3DB01DBB2134300EB41108A
:1034100000F51060806818407047406900F00100B6
:10342000704738B50546C36823F0C043C36001291F
:1034300013D019BBC36843F08043C36000240A2043
:10344000FDF7C8FE0A342846FFF7E7FF08B1C72C8E
:10345000F5D9C82C14D0002038BDC36843F0005300
:10346000C36000240A20FDF7B5FE0A342846FFF7A2
:10347000D4FF0128EDD0C72CF4D9EAE70120EBE70F
:103480000120E9E7D0F800396FF30A03C0F80039EA
:10349000D0F8043843F48073C0F804380020704733
:1034A00010B4046C154B9C4203D9D0F8003B002BA0
:1034B00016DB0024C0F8104BD0F8104B44F4002465
:1034C000C0F8104BD0F8104B44F01804C0F8104B63
:1034D000D0F8104B44F0C044C0F8104B012903D081
:1034E00000205DF8044B7047C0F8142BD0F8003B67
:1034F00043F08023C0F8003BF2E700BF0A30544F8E
:1035000010B5D0F8D43203F1B00250F822408CB19B
:1035100000EB820043687BB194F80002FF280DD0D5
:103520009B6894F8012221469847FF2384F80032D3
:10353000002010BD0320FCE70020FAE70020F8E798
:103540000A23038000487047C4050020F8B50646EA
:103550000F4F8221384600F023FC054601213846F2
:1035600000F01EFC04468121384600F019FC0DB124
:103570001022AA711CB1402222710022627118B17E
:103580004022027100224271432333800048F8BD7B
:1035900048050020F8B506460F4F8221384600F056
:1035A000FFFB05460121384600F0FAFB0446812165
:1035B000384600F0F5FB0DB11022AA711CB1402273
:1035C00022710022627118B1402202710022427100
:1035D000432333800048F8BD48050020F8B506466F
:1035E0000F4F8221384600F0DBFB054601213846AB
:1035F00000F0D6FB04468121384600F0D1FB0DB126
:103600001022AA711CB1002222710222627118B12B
:103610000022027102224271432333800048F8BD28
:103620004805002038B5D0F8D432B03350F82350D4
:1036300095B1044603F050F8C5F80C02D4F8D43222
:10364000B03304EB83046368DB6805F50371D5F8D8
:1036500004029847002038BD0320FCE738B5D0F8B5
:10366000C852D0F8D432B03350F8234084B301F0BC
:103670000F0303EB830200EB820292694AB103EB72
:10368000C30C05EB8C05ED69B2FBF5FC05FB1C22B8
:1036900092B10023C4F81432D0F8D432B03300EB26
:1036A000830043681B69ABB10A4604F50471D4F882
:1036B00008029847002038BD03EB830300EB830327
:1036C00000249C612346224603F04EF82046F2E790
:1036D0000320F0E70020EEE7F0B583B0D0F8D43255
:1036E00003F1B00250F8227000228DF80720ADF8E7
:1036F0000420002F7BD004460D46097811F06006A7
:1037000034D0202E6CD1EA882AB311F0800F07D173
:103710006B7887F80032EA883F2A13D8D2B212E0D9
:10372000B03300EB83035B689B6839466878984741
:10373000EA88072A28BF07223946204600F0E6FE1D
:10374000002651E0402287F801223946204600F049
:10375000F2FE002648E0B03300EB83035B689B6811
:10376000002229466878984700263DE06F780B2FA5
:1037700031D8DFE807F006393030303030303030C3
:10378000162690F89C32DBB2032B04D0294600F0B9
:1037900044FB032628E0022201A900F0B7FE3E46C2
:1037A00022E090F89C32DBB2032B04D0294600F0D3
:1037B00034FB032618E001220DF1070100F0A6FEFC
:1037C00012E090F89C32DBB2032B0DD0294600F0BA
:1037D00024FB032608E0294600F01FFB032603E034
:1037E000294600F01AFB0326304603B0F0BD03263D
:1037F000FAE738B50446812102F096FF00252587B7
:103800000121204602F090FFA4F878518221204641
:1038100002F08AFFA4F84C50A4F84E50D4F8D432E9
:1038200003F1B00254F822209AB1B03304EB8303C1
:103830005B685B689847D4F8D432B03354F82300FF
:1038400002F054FFD4F8D432B03344F82350C4F813
:10385000BC52002038BD70B504464FF4077002F02A
:1038600041FF002849D005464FF407720021FCF7BC
:103870004BFED4F8D432B03344F82350C4F8BC52D1
:10388000237C002B41D14FF400730222812120467A
:1038900002F03FFF012626874FF4007302223146D3
:1038A000204602F036FFA4F878611023A4F84E30C9
:1038B000082303228221204602F02BFF0123A4F8D3
:1038C0004C300026C5F80462D4F8D432B03304EB8F
:1038D00083035B681B689847C5F81462C5F81862D3
:1038E000D5F8042262B3257C1DBB4FF4007301217F
:1038F000204602F041FF284670BDD4F8D432B033E0
:10390000002244F823200225F5E7402302228121EA
:10391000204602F0FEFE0126268740230222314681
:10392000204602F0F6FEA4F878611023A4F84E3089
:10393000BEE740230121204602F01EFF0025DAE702
:103940000225D8E739B1D0F8D432B03300EB830088
:1039500041600020704703207047D0F8D432B03364
:1039600050F823302BB1C3F80812C3F810220020FE
:10397000704703207047D0F8D432B03350F823306A
:103980001BB1C3F80412002070470320704710B524
:10399000D0F8D432B03350F8232092B1047C44B92B
:1039A0004FF40073D2F80422012102F0E5FE204614
:1039B00010BD4023D2F80422012102F0DDFE0024D4
:1039C000F5E70324F3E798B108B503460020C3F8F0
:1039D000B802C3F8C402C3F8D00209B1C3F8B412E4
:1039E000012183F89C121A70184602F02BFE08BDC4
:1039F0000320704710B582B00023ADF8063089B1BE
:103A00000446C0F8B812CB6A23B10DF106009847FE
:103A1000C4F8D002D4F8D8320133C4F8D832002028
:103A200002B010BD0320FBE708B502F06AFE08BD36
:103A300008B5D0F8B83213B11B68984708BD00200C
:103A4000FCE708B5D0F8B8325B68984700B908BD04
:103A50000320FCE738B5044600F2AA25284600F00A
:103A6000C8F90123C4F89432B4F8B032C4F89832DB
:103A700094F8AA1201F01F03012B07D0022B0AD0E1
:103A800073B92946204600F089FB38BD29462046F7
:103A900000F0BFFBF9E72946204600F0FCFBF4E705
:103AA00001F08001204602F047FEEEE7F8B504463B
:103AB000012380F89C320023C0F894324360C0F8A0
:103AC000A43280F8A032D0F8B832DBB15B68DBB149
:103AD000002198470746C8B94023002211462046D6
:103AE00002F017FE0126A4F864614025C4F8605175
:103AF0002B4600228021204602F00BFEA684256280
:103B00003846F8BD0027E7E70027E5E70327E3E7A6
:103B100001740020704790F89C32DBB2042B04D073
:103B200090F89C32DBB280F89D32042380F89C32FE
:103B30000020704790F89C32DBB2042B01D00020AB
:103B4000704790F89D32DBB280F89C32F7E708B5F9
:103B500090F89C32DBB2032B01D0002008BDD0F8D6
:103B6000B832002BF9D0DB69002BF6D09847F4E788
:103B700008B5D0F8D432AE3350F823205AB190F8BB
:103B80009C32DBB2032B01D0002008BD136A23B1A5
:103B900098470020F9E70320F7E70020F5E708B58C
:103BA000D0F8D432AE3350F823205AB190F89C327A
:103BB000DBB2032B01D0002008BD536A23B1984724
:103BC0000020F9E70320F7E70020F5E70020704721
:103BD00008B5012380F89C32D0F8B83223B15B6875
:103BE0000179984710B908BD0020FCE70320FAE7E7
:103BF000002070470020704738B504460D46002964
:103C000042D11346D0F89422032A01D0084638BD89
:103C1000D0F85C11D0F86021914209D890F8AA320E
:103C200003F01F03012B0ED0022B1BD028460FE000
:103C3000891AC0F85C118A4228BF0A46194600F06A
:103C400089FC2846E3E790F8AE12FFF7D1FF20B9D0
:103C500094F89C32DBB2032B09D0204600F082FCA2
:103C60002846D4E790F8AE12FFF7C4FFEFE700F163
:103C7000AE0354F823301A69002AEED0C4F8D402F7
:103C80001B6920469847E8E701F07F01FFF7B2FF84
:103C900090B994F89C32DBB2032BB8D100F1AE039B
:103CA00054F823309A69002AB1D0C4F8D4029B6931
:103CB000294620469847AAE70020A8E738B50446D9
:103CC0000D4600294BD11346D0F89422022A07D082
:103CD00094F8A00218B1002384F8A032284638BD19
:103CE000C269016A8A420ED88A4218D094F89C327E
:103CF000DBB2032B27D08021204602F01DFD204699
:103D000000F03BFCE4E7521AC261194600F00BFCDC
:103D100000231A461946204602F02EFDD8E7836993
:103D20009942E3D8D0F898229342DFD2002211467C
:103D300000F0F9FB0021C4F898120B460A46204611
:103D400002F01AFDC4E7D4F8B832DA68002AD2D0FB
:103D50000022C4F8D422DB6820469847CBE741F024
:103D60008001FFF747FF90B994F89C32DBB2032B38
:103D7000B5D100F1AE0354F823305A69002AAED011
:103D8000C4F8D4025B69294620469847A7E700207B
:103D9000A5E70B88027813440B800378184470471A
:103DA000428803789A4218D930B583B004460D464C
:103DB000ADF806306388BDF806209A420AD20DF1AC
:103DC0000601FFF7E6FF4378052BF3D18378AB427A
:103DD000F0D100E0002003B030BD00207047034662
:103DE000002002E00130C0B201331A78002AF9D174
:103DF00070470B7803704B7843708B78CA7843EA2E
:103E0000022343800B794A7943EA022383808B792A
:103E1000CA7943EA0223C380704710B50446802163
:103E200002F08AFC0021204602F086FC10BD30B56D
:103E300083B004460D460023ADF806304A88130AC5
:103E4000013B062B00F2AB80DFE803F0041F33A92F
:103E5000A98D9A00D0F8B4321B680DF10601007CE0
:103E60009847EA88002A00F0A380BDF80630002BAE
:103E700000F099809A4228BF1A46ADF80620014604
:103E8000204600F043FB03B030BD037C43B9D0F8BB
:103E9000B8329B6A0DF10600984702234370E0E7B1
:103EA000D0F8B832DB6A0DF1060098470223437060
:103EB000D7E7D2B2052A52D8DFE802F003101D2A54
:103EC0003744D0F8B4325B6823B10DF10601007CB1
:103ED0009847C6E72946FFF7A0FFD4E7D0F8B432E9
:103EE0009B6823B10DF10601007C9847B9E729468C
:103EF000FFF793FFC7E7D0F8B432DB6823B10DF1C9
:103F00000601007C9847ACE72946FFF786FFBAE731
:103F1000D0F8B4321B6923B10DF10601007C98473B
:103F20009FE72946FFF779FFADE7D0F8B4325B6928
:103F300023B10DF10601007C984792E72946FFF76F
:103F40006CFFA0E7D0F8B4329B6923B10DF10601F4
:103F5000007C984785E72946FFF75FFF93E72946EE
:103F6000FFF75BFF8FE7037C33B9D0F8B8325B6BA8
:103F70000DF10600984774E72946FFF74EFF82E7E8
:103F8000037C43B9D0F8B8321B6B0DF1060098479B
:103F90000723437065E72946FFF73FFF73E729468C
:103FA000FFF73BFF6FE729462046FFF736FF6AE73A
:103FB000204600F0D7FA66E738B504468B88FBB98F
:103FC000CB88EBB94B887F2B1AD803F07F0590F88C
:103FD0009C32DBB2032B0CD080F89E52294602F0B3
:103FE000BBFB204600F0BEFA35B1022384F89C32B8
:103FF00009E0FFF712FF06E0012384F89C3202E09B
:104000002046FFF70AFF38BD70B504460E468D788E
:104010002F4B1D70012D10D890F89C32DBB2022B73
:104020000FD0032B26D0FFF7F8FE294B1978204636
:10403000FFF707FD0325284670BDFFF7EEFE0325B9
:10404000F9E7A5B145602946FFF7F2FC054638B10E
:1040500031462046FFF7E1FE022384F89C32EAE76E
:10406000204600F07FFA032384F89C32E3E700F057
:1040700079FAE0E7CDB141688D4225D0C9B2FFF7AA
:10408000E0FC134B197861602046FFF7D1FC054630
:10409000B0B131462046FFF7C0FE21792046FFF738
:1040A000D0FC022384F89C32C5E7022380F89C32BE
:1040B00045602946FFF7C5FC204600F053FABAE7F1
:1040C000204600F04FFAB6E700F04CFA0025B2E7C0
:1040D000C409002008B5CB88012B0BD190F89C3285
:1040E000DBB2022B09D9032B11D10122011D00F0F3
:1040F0000DFA01E0FFF791FE08BD5BB23BB101464E
:10410000002341F8083F012200F000FAF4E7FFF72E
:1041100084FEF1E708B590F89C32013B022B12D8DF
:10412000CB88022B0CD10123C360D0F8A4320BB191
:104130000323C360022200F10C0100F0E7F908BD7F
:10414000FFF76BFEFBE7FFF768FEF8E708B54B8863
:10415000012B04D0022B07D0FFF75FFE08BDC0F88B
:10416000A43200F0FFF9F9E78B881B0A80F8A0322F
:1041700000F0F8F9F2E708B590F89C32013B022B09
:1041800009D84B88012B00D008BD0023C0F8A43209
:1041900000F0E8F9F8E7FFF740FEF5E738B50C78EE
:1041A00004F06004202C06D0402C04D06CB1FFF742
:1041B00034FE002407E0D0F8D432AE3350F8233078
:1041C0009B6898470446204638BD4D78092D1DD878
:1041D000DFE805F012191C161C08051C0F0BFFF771
:1041E00026FEF0E7FFF7E8FEEDE7FFF70DFF0446D8
:1041F000E9E7FFF76FFFE6E7FFF78CFF2C46E2E702
:10420000FFF7A4FFDFE7FFF7B6FFDCE7FFF705FEE8
:10421000D9E770B505460C460B7803F06003202BF8
:1042200007D0402B05D023B1FFF7F7FD002630461D
:1042300070BD95F89C32013B022B26D821790129CB
:1042400005D921462846FFF7E8FD0026EFE7284676
:10425000FFF7CEFC68B900F1AE0255F82220916854
:1042600089B1C5F8D4029368214628469847064686
:1042700000E00326E388002BD9D1002ED7D12846B1
:1042800000F070F9D3E70326F4E721462846FFF74C
:10429000C4FD0026CBE72DE9F04106460D468B888C
:1042A000DFB20C7804F06004202C08D0402C06D03B
:1042B000DCB1FFF7B2FD00242046BDE8F0813946AD
:1042C0003046FFF797FC0446002840F0F880C6F817
:1042D000D40200F1AE0356F823309B68002BEBD0DC
:1042E0002946304698470446E6E791F80180B8F140
:1042F000010F31D0B8F1030F05D0B8F1000F67D02E
:10430000FFF78BFDD8E790F89C32DBB2022B04D08C
:10431000032B12D0FFF781FDCEE70FB1802F04D120
:1043200029463046FFF779FDC6E7394602F004FA20
:104330008021304602F000FABEE74B8823B91FB156
:10434000802F01D0CB881BB1304600F00BF9B3E7CA
:10435000394602F0F1F9F7E790F89C32DBB2022B14
:1043600004D0032B12D0FFF758FDA5E70FB1802F23
:1043700004D129463046FFF750FD9DE7394602F04B
:10438000DBF98021304602F0D7F995E74B88002B06
:1043900092D117F07F0F17D1304600F0E3F839467D
:1043A0003046FFF727FC002886D1C6F8D40200F17A
:1043B000AE0256F822209268002A00F08280294638
:1043C00030469047044677E7394602F0BDF9E3E707
:1043D00090F89C22D2B2022A05D0032A27D0FFF7F8
:1043E0001CFD444668E70FB1802F13D113F0800FF6
:1043F00014D107F07F0707EB8707B90001F5A87113
:104400003144043100230B600222304600F07EF874
:10441000444651E7FFF701FD44464DE707F07F07AB
:1044200007EB8707B900103131440431EAE75BB28A
:10443000002B1FDB07F00F0202EB820200EB82026F
:10444000B2F864211AB3002B25DB07F07F0303EBDE
:1044500083039C0004F5A874344404340FB1802F06
:1044600022D10023236002222146304600F04EF87C
:10447000444621E707F00F0202EB820200EB8202C2
:10448000928C002ADFD1FFF7C8FC444614E7FFF7FF
:10449000C4FC444610E707F07F0303EB83039C0052
:1044A000103434440434D9E73946304602F0FEF87B
:1044B00010B101232360D6E700232360D3E7002453
:1044C000FAE60446F8E600B370B50D461646044613
:1044D000FFF785FC01304300B3F5007F06D89BB29F
:1044E00033802B7003236B7002230AE04FF40073B8
:1044F000F6E7EA5401345A1CD2B20021A95402331F
:10450000DBB22278002AF4D170BD704708B513469B
:104510000222C0F894228361C3610A46002102F09E
:1045200023F9002008BD08B513460A46002102F011
:104530001BF9002008BD08B513460322C0F89422D9
:10454000C0F85831C0F85C310A46002102F014F975
:10455000002008BD08B513460A46002102F00CF9F8
:10456000002008BD08B50422C0F8942200231A4692
:10457000194602F0F9F8002008BD08B50522C0F878
:10458000942200231A46194602F0F6F8002008BDCE
:10459000EFF305832BB9064B186828B901221A607E
:1045A00070476FF0050070474FF0FF30704700BF55
:1045B000D80F0020EFF3058373B90A4B1B68012B5A
:1045C0000DD110B50024084BDC77064B02221A608F
:1045D00001F042F9204610BD6FF0050070474FF022
:1045E000FF307047D80F002000ED00E0F0B587B035
:1045F00000240594EFF305847CBB70B32AB31568DF
:10460000936903B918235C1E372C4AD8546814F0F8
:10461000010F48D1566976B14FEA960C946834B1CF
:10462000D768B7F5C47F02D3176907B1C6B92CB1F3
:104630004FF0FF340EE04FF0400CEFE7D4688CB938
:10464000146994B14FF0FF3404E015460024182398
:104650004FF0400C012C0AD0ACB1059807B0F0BD6A
:104660000124F7E74FF0FF34F4E70024F2E7146980
:1046700092680292019400930B466246294601F02B
:104680007BF80590E9E705AA019200930B461FFA13
:104690008CF2294601F0ADF80128DED00023059305
:1046A000DBE70020DAE70020D8E708B5EFF3058361
:1046B00033B908B9002008BD01F03AFA0020FAE742
:1046C0006FF00500F7E70000034B0360034B0B603E
:1046D00040231360704700BF500E0020500D002093
:1046E000034B0360034B0B6080231360704700BFD4
:1046F000C80B0020C809002000F1080343604FF0F8
:10470000FF328260C36003610023036070470023AF
:104710000361704743684B609A688A605160996092
:104720000861036801330360704730B40D68B5F168
:10473000FF3F11D000F108031C465B681A68AA42CB
:10474000FAD963684B6099608C60616008610368A6
:104750000133036030BC70470469F2E703694168C4
:1047600082688A60416851605A68824206D000229D
:1047700002611A68013A1A601868704782685A60C4
:10478000F5E7000082B0002301930D4B1B68B3F1E5
:10479000FF3F08D04FF0500383F31188BFF36F8FB2
:1047A000BFF34F8FFEE74FF0500383F31188BFF341
:1047B0006F8FBFF34F8F019B002BFCD002B070476F
:1047C000D005002008480068006880F308884FF092
:1047D000000080F3148862B661B6BFF34F8FBFF359
:1047E0006F8F00DF00BF000008ED00E0DFF80C0075
:1047F000016841F4700101607047000088ED00E03D
:104800004FF0807340F8043C21F0010140F8081C8F
:10481000054B40F80C3C40F8202C6FF0020340F8A8
:10482000243C4438704700BF854700080000000062
:10483000074B19680868B0E8F04F80F30988BFF3A8
:104840006F8F4FF0000080F311887047AFF3008046
:10485000445100204FF0500383F31188BFF36F8F52
:10486000BFF34F8F0B4A136801331360012B00D045
:1048700070474FF0E023D3F8043D13F0FF0FF7D05B
:104880004FF0500383F31188BFF36F8FBFF34F8F47
:10489000FEE700BFD0050020094B1B6843B94FF06D
:1048A000500383F31188BFF36F8FBFF34F8FFEE781
:1048B000013B034A13600BB983F31188704700BFB3
:1048C000D0050020000000000000000000000000F3
:1048D000EFF30980BFF36F8F154B1A681EF0100FAE
:1048E00008BF20ED108A20E9F04F10602DE9090083
:1048F0004FF0500080F31188BFF34F8FBFF36F8FDD
:1049000001F03CF94FF0000080F3118809BC1968F0
:104910000868B0E8F04F1EF0100F08BFB0EC108A26
:1049200080F30988BFF36F8F704700BFAFF300803B
:104930004451002008B54FF0500383F31188BFF3B2
:104940006F8FBFF34F8F00F0EBFF28B14FF0E023E4
:104950004FF08052C3F8042D002383F3118808BD63
:104960004FF0E022002313619361054B1B6805495A
:10497000A1FB03139B09013B53610723136170479C
:104980003C050020D34D62104FF0E023D3F8002DFA
:104990003D4B9A421CD04FF0E023D3F8002D3B4B07
:1049A0009A421ED030B583B0394B1A78D2B20192F8
:1049B000FF221A701B78DBB28DF803309DF80330AC
:1049C00003F05003334A1370334B07221A601BE085
:1049D0004FF0500383F31188BFF36F8FBFF34F8FF6
:1049E000FEE74FF0500383F31188BFF36F8FBFF3DF
:1049F0004F8FFEE7284A1368013B13609DF8033090
:104A00005B00DBB28DF803309DF8033013F0800FAC
:104A1000F0D1214B1B68032B08D04FF0500383F3D8
:104A20001188BFF36F8FBFF34F8FFEE71B021A4A47
:104A3000136003F4E0631360019BDBB2144A13704C
:104A40004FF0E024D4F8203D43F47003C4F8203D37
:104A5000D4F8203D43F07043C4F8203DFFF780FFB9
:104A600000250E4B1D60FFF7C1FED4F8343F43F024
:104A70004043C4F8343FFFF7A5FE01F07FF8FFF78D
:104A800081FE284603B030BD71C20F4170C20F4194
:104A900000E400E0E00F0020DC0F0020D005002043
:104AA000EFF305830F2B0FD9114A9B5CDBB2114A40
:104AB00012789A4208D94FF0500383F31188BFF35C
:104AC0006F8FBFF34F8FFEE74FF0E023D3F80C3D1D
:104AD00003F4E063084A1268934208D94FF0500388
:104AE00083F31188BFF36F8FBFF34F8FFEE77047DB
:104AF000F0E300E0E00F0020DC0F0020124A12F08B
:104B0000070F1ED0D11D21F00701C1F570531344CA
:104B10000A460E480260002141601344083B23F01E
:104B200007030B48036059601960991A51601360BC
:104B3000084B1960084B1960084B4FF000421A608F
:104B400070474FF47053E4E704100020FC0F00207E
:104B5000F80F0020F00F0020F40F0020E40F0020D9
:104B6000164B1A461B688342FBD3516802EB010CBB
:104B7000844509D0416800EB010C634509D003600E
:104B8000904219D01060704740680144516010464F
:104B9000F0E710B40A4C2468A3420BD05B681944B8
:104BA000416013681B680360904200D010605DF89C
:104BB000044B70470460F7E7704700BFFC0F00200C
:104BC000F80F002038B5044600F09CFE3D4B1B68F2
:104BD000ABB13D4B1B681C4214D1002C6AD004F1D0
:104BE000080214F0070F02D022F007020832D2B1F7
:104BF000364B1B6893421AD335490C681DE0FFF70A
:104C00007DFFE6E700F018FF0025FCF725F815F01A
:104C1000070F55D04FF0500383F31188BFF36F8F08
:104C2000BFF34F8FFEE700F007FF0025EDE700F030
:104C300003FF0025E9E721461C466368934202D240
:104C40002368002BF7D11F4B1B68A34214D00D68BB
:104C5000083523680B6063689B1A102B14D9A018C1
:104C600010F0070F0CD04FF0500383F31188BFF3FF
:104C70006F8FBFF34F8FFEE700F0DEFE0025C4E725
:104C800043606260FFF76CFF626810490B689B1A13
:104C90000B60104909688B4201D20E490B600A4B28
:104CA0001B6813436360002323600B4A13680133BE
:104CB000136000E0002500F0BFFE002DA7D1A4E79F
:104CC000284638BDF80F0020E40F0020F40F002024
:104CD000FC0F0020F00F0020EC0F0020002834D043
:104CE00038B50446A0F1080550F8043C174A12688C
:104CF000134208D14FF0500383F31188BFF36F8F35
:104D0000BFF34F8FFEE750F8081C41B14FF050033E
:104D100083F31188BFF36F8FBFF34F8FFEE723EA52
:104D2000020340F8043C00F0EDFD54F8041C084A6E
:104D300013680B4413602846FFF712FF054A1368F7
:104D40000133136000F078FE38BD7047E40F002097
:104D5000F40F0020E80F002010B50446FFF77AFD9D
:104D6000A26BE36B9A4204D00024FFF795FD204626
:104D700010BD0124F9E710B50446FFF76BFDA36BE6
:104D800023B90124FFF788FD204610BD0024F9E770
:104D900070B504461546866B026C5AB903681BB1A0
:104DA00000200136A66370BD806801F033F800234F
:104DB000A360F6E76DB94068FBF7FEFB6368226C01
:104DC00013446360A268934219D323686360284642
:104DD000E7E7C068FBF7F0FBE368226C51429B1ADF
:104DE000E3602268934202D2A3680B44E360022D81
:104DF00001D00020D5E726B1013E0020D1E72846AA
:104E0000CFE70020CDE70346026C6AB110B5084633
:104E1000D9681144D9609C68A14201D31968D9604E
:104E2000D968FBF7C9FB10BD704738B50546FFF7D9
:104E300011FD95F8454064B201E0013C64B2002CDC
:104E40000ADD6B6A43B105F1240000F039FF002848
:104E5000F3D000F0C9FFF0E7FF2385F84530FFF7F6
:104E60001BFDFFF7F7FC95F8444064B201E0013CFC
:104E700064B2002C0ADD2B6943B105F1100000F08B
:104E80001FFF0028F3D000F0AFFFF0E7FF2385F805
:104E90004430FFF701FD38BD38B5E0B10D4604469A
:104EA000FFF7D8FC2368E26B216C01FB0230A060A5
:104EB0000020A0636360013A02FB0133E360FF233B
:104EC00084F8443084F84530FDB9236963B9FFF7AD
:104ED000E3FC012038BD4FF0500383F31188BFF38A
:104EE0006F8FBFF34F8FFEE704F1100000F0E8FE74
:104EF0000028ECD04FF0E0234FF08052C3F8042D8F
:104F0000BFF34F8FBFF36F8FE1E704F11000FFF79E
:104F1000F3FB04F12400FFF7EFFBD8E738B51D469B
:104F2000049C0B4649B92460E063236401212046B8
:104F3000FFF7B2FF84F84C5038BD2260F4E740B967
:104F40004FF0500383F31188BFF36F8FBFF34F8F80
:104F5000FEE710B584B01C46844653B192B189B9BE
:104F60004FF0500383F31188BFF36F8FBFF34F8F60
:104F7000FEE74FF0500383F31188BFF36F8FBFF349
:104F80004F8FFEE76AB150230393039B502B13D03E
:104F90004FF0500383F31188BFF36F8FBFF34F8F30
:104FA000FEE70029EFD04FF0500383F31188BFF3E1
:104FB0006F8FBFF34F8FFEE7039B012384F84630CA
:104FC00000949DF818306046FFF7A8FF204604B013
:104FD00010BDF0B585B0019288B10F461D4604465C
:104FE000B1B1022D20D1E36B012B1DD04FF0500346
:104FF00083F31188BFF36F8FBFF34F8FFEE74FF03E
:10500000500383F31188BFF36F8FBFF34F8FFEE719
:10501000036C002BE5D04FF0500383F31188BFF3EE
:105020006F8FBFF34F8FFEE700F0E4FE064658B9DE
:10503000019B002B48D04FF0500383F31188BFF33E
:105040006F8FBFF34F8FFEE700263DE02A463946BB
:105050002046FFF79DFE636A7BB948B14FF0E0231D
:105060004FF08052C3F8042DBFF34F8FBFF36F8F03
:10507000FFF712FC012005B0F0BD04F1240000F0A0
:105080001FFE0028F4D04FF0E0234FF08052C3F809
:10509000042DBFF34F8FBFF36F8FE9E7FFF7FCFBE2
:1050A0000020E8E702A800F051FE012619E00023E5
:1050B00084F8443021E0002384F8453023E0204682
:1050C000FFF7B3FE00F0B8FCFFF7C4FBA26BE36B85
:1050D0009A42BBD3022DB9D0019B002BDED0002E0B
:1050E000E0D0FFF7D9FB00F00DFCFFF7B3FB94F81D
:1050F000442052B2B2F1FF3FD9D094F8452052B2C9
:10510000B2F1FF3FD7D0FFF7C7FB01A902A800F01B
:1051100029FED8B92046FFF71FFE0028CFD00199FD
:1051200004F1100000F098FD2046FFF77EFE00F02D
:1051300083FC0028C8D14FF0E0234FF08052C3F821
:10514000042DBFF34F8FBFF36F8FBDE72046FFF7EE
:105150006CFE00F071FC00208DE72DE9F84390B162
:105160000F4616461C460546B1B1022C20D1EB6B0A
:10517000012B1DD04FF0500383F31188BFF36F8FC5
:10518000BFF34F8FFEE74FF0500383F31188BFF357
:105190006F8FBFF34F8FFEE7036C002BE5D04FF00E
:1051A000500383F31188BFF36F8FBFF34F8FFEE778
:1051B000FFF776FCEFF311884FF0500383F311886B
:1051C000BFF36F8FBFF34F8FAA6BEB6B9A4206D37F
:1051D000022C04D0002088F31188BDE8F88395F8EC
:1051E00045904FFA89F9AB6B224639462846FFF7BE
:1051F000CFFDB9F1FF3F06D009F101035BB285F89D
:1052000045300120E7E76B6A0BB90120E3E705F1C0
:10521000240000F055FD18B126B101203060DAE716
:105220000120D8E70120D6E7F0B585B0019290B112
:105230000F460446C1B100F0DDFD064600BB019BF0
:10524000002B5ED04FF0500383F31188BFF36F8FB4
:10525000BFF34F8FFEE74FF0500383F31188BFF386
:105260006F8FBFF34F8FFEE7036C002BE3D04FF03F
:10527000500383F31188BFF36F8FBFF34F8FFEE7A7
:1052800000263EE039462046FFF7BDFD013DA563FF
:10529000236923B9FFF700FB012005B0F0BD04F13D
:1052A000100000F00DFD0028F4D04FF0E0234FF087
:1052B0008052C3F8042DBFF34F8FBFF36F8FE9E720
:1052C000FFF7EAFA0020E8E702A800F03FFD012618
:1052D00021E0002384F8443029E0002384F845309D
:1052E0002BE02046FFF7A1FD00F0A6FB09E02046D9
:1052F000FFF79BFD00F0A0FB2046FFF73CFD0028D8
:105300003FD1FFF7A7FAA56B002DBBD1019B002B66
:10531000D6D0002ED8D0FFF7BFFA00F0F3FAFFF78F
:1053200099FA94F844305BB2B3F1FF3FD1D094F8CE
:1053300045305BB2B3F1FF3FCFD0FFF7ADFA01A923
:1053400002A800F00FFD0028D1D12046FFF713FD81
:105350000028C6D0019904F1240000F07DFC20460D
:10536000FFF763FD00F068FB0028CAD14FF0E0238F
:105370004FF08052C3F8042DBFF34F8FBFF36F8FF0
:10538000BFE7002089E700000023072B0CD8074A5D
:1053900052F833200AB10133F7E7044A42F83310D8
:1053A00002EBC30250607047704700BF044C0020FE
:1053B00070B504460D461646FFF74CFA94F8443093
:1053C0005BB2B3F1FF3F0DD094F845305BB2B3F15F
:1053D000FF3F0BD0FFF760FAA36B5BB12046FFF7EE
:1053E00024FD70BD002384F84430EDE7002384F8E9
:1053F0004530EFE73246294604F1240000F044FC32
:10540000ECE70000084B1B681B6823B9074B4FF003
:10541000FF321A607047044B1B68DB68DB685A6810
:10542000024B1A60704700BFB84C00204C4C002063
:105430002DE9F04780460D4617469946089EDDF84F
:1054400024A00A9C9200A521206BFBF75DF8236B3A
:1054500007F18042013A03EB820727F007076764F0
:10546000002D61D04FF0000CBCF10F0F09D815F8DA
:105470000C3004EB0C0282F8343013B10CF1010C47
:10548000F2E7002384F84330372E00D93726E6624E
:10549000266500256565201DFFF739F904F1180020
:1054A000FFF735F92461C6F13806A6616462C4F8D5
:1054B000785184F87C514FF49072294604F15800D9
:1054C000FBF722F81A4BE36503F168022266D0333A
:1054D000636601220023C4E93C2343F20E33A4F89F
:1054E000F8304AF6CD33A4F8FA3041F23423A4F868
:1054F000FC304EF26D63A4F8FE304DF6EC63A4F878
:1055000000310523A4F802310B23A4F804314A46E4
:1055100041463846FFF774F92060BAF1000F01D018
:10552000CAF80040BDE8F087002384F83430ABE7C8
:105530005806002038B5002407E004EB84029300ED
:105540000E481844FFF7D8F80134372CF5D90C4D24
:105550002846FFF7D1F80B4C2046FFF7CDF80A4854
:10556000FFF7CAF80948FFF7C7F80948FFF7C4F87A
:10557000084B1D60084B1C6038BD00BFE44C002088
:10558000D04C0020BC4C0020A04C00208C4C0020B3
:10559000744C0020B84C0020B44C002010B50446D8
:1055A000FFF758F9224A136801331360214B1B6837
:1055B0005BB1214B1B686BB91E4B1B68DA6AE36A4F
:1055C0009A4207D81B4B1C6004E01A4B1C601368FE
:1055D000012B29D0194A136801331360A364E06AD0
:1055E000174B1B68984201D9154B186000EB8000DF
:1055F000211D144B03EB8000FFF78CF8FFF74CF9EB
:105600000D4B1B687BB10B4B1B68DA6AE36A9A424D
:1056100009D24FF0E0234FF08052C3F8042DBFF3BE
:105620004F8FBFF36F8F10BDFFF784FFD2E700BF2E
:105630006C4C002044510020604C0020504C002055
:10564000644C0020E44C002010B504465830FBF7B1
:105650004DF894F87D3163B1012B11D0022B0ED09F
:105660004FF0500383F31188BFF36F8FBFF34F8F59
:10567000FEE7206BFFF732FB2046FFF72FFB10BD44
:105680002046FFF72BFBFAE70F4B1B68D3B110B591
:10569000FFF7E0F80D4BDB68DC68201DFFF75EF8D4
:1056A0000B4A1368013B1360074A1368013B136000
:1056B000FFF7F2F82046FFF7C7FF034B1B68002BEC
:1056C000E6D110BD704700BF884C00208C4C0020F4
:1056D0006C4C002008B5FFF7D7FF074B1B68012B68
:1056E000F9D94FF0E0234FF08052C3F8042DBFF3F7
:1056F0004F8FBFF36F8FEEE7E44C002070B5044688
:105700000D46174B1E68174B18680430FFF726F834
:10571000B4F1FF3F0DD03444124B1B685C60A642CD
:1057200010D9114B18680F4B19680431FEF7FDFFB3
:1057300070BD002DEFD00B4B196804310B48FEF7FC
:10574000E9FFF5E70A4B1868064B19680431FEF7C4
:10575000ECFF084B1B68A342EAD9064B1C60E7E745
:10576000684C002044510020B44C0020744C0020B0
:10577000B84C00204C4C002030B587B00B9C8CB14D
:105780000C9DC5B14FF4C4750495049DB5F5C47F57
:105790001AD04FF0500383F31188BFF36F8FBFF31C
:1057A0004F8FFEE74FF0500383F31188BFF36F8FE5
:1057B000BFF34F8FFEE74FF0500383F31188BFF321
:1057C0006F8FBFF34F8FFEE7049D0C9D2C63022467
:1057D00085F87D4100240394029505AC01940A9C50
:1057E0000094FFF725FE0C98FFF7D8FE059807B048
:1057F00030BD2DE9F04385B00746884614461E4665
:105800009000FFF7DFF910B381464FF4C470FFF743
:10581000D9F90546A8B1C0F83090002380F87D3151
:10582000039302900D9B01930C9B009333462246F9
:1058300041463846FFF7FCFD2846FFF7AFFE012042
:1058400007E04846FFF74AFA4FF0FF3001E04FF01B
:10585000FF3005B0BDE8F08310B588B00024059492
:10586000069407AA06A905A8FEF72EFF059B02933A
:10587000069B019300942346079A1A491A48FFF79A
:105880007BFF1A4B1860E8B100F078FB01281AD1B1
:105890004FF0500383F31188BFF36F8FBFF34F8F27
:1058A000134B1B685833134A1360134B4FF0FF32EE
:1058B0001A60124B01221A60114B00221A60FFF786
:1058C00063F803E00020B0F1FF3F01D008B010BD45
:1058D0004FF0500383F31188BFF36F8FBFF34F8FE7
:1058E000FEE700BFD8670008D5560008484C0020E6
:1058F00044510020000000204C4C0020604C00204F
:10590000684C0020024A136801331360704700BFDF
:10591000444C0020014B1868704700BF684C0020C1
:10592000F8B53A4B1B68002B69D1394B1D6801351E
:105930001D60C5B9374B1B681B6843B14FF050035E
:1059400083F31188BFF36F8FBFF34F8FFEE7314AA8
:105950001168314B186810601960304A13680133C0
:105960001360FFF74FFD2E4B1B68AB423DD900275C
:105970002C4B1B68DB6A03EB83039A002A4B9B5872
:10598000012B00D90127294B1B68002B3CD0012794
:105990003AE001271F4B1B681B6843B31D4B1B6874
:1059A000DB68DC6863689D4226D3261D3046FEF71F
:1059B000D5FEA36A1BB104F11800FEF7CFFEE36A1F
:1059C0001B4A1268934201D9194A136003EB8303FF
:1059D0009A00314614481044FEF79CFEE26A114BCF
:1059E0001B68DB6A9A42D4D2D4E70027D2E70C4B7B
:1059F0004FF0FF321A60BBE7094A1360B8E70D4A5F
:105A000013680133136000273846F8BD444C00206A
:105A1000684C0020B84C0020B44C0020544C0020AE
:105A20004C4C002044510020E44C0020584C0020F5
:105A3000644C00205C4C002038B5354B1B6843B9E2
:105A40004FF0500383F31188BFF36F8FBFF34F8F75
:105A5000FEE7FEF7FFFE2E4B1A68013A1A601B683C
:105A6000002B4FD12B4B1B680BB900244BE00024BB
:105A7000294B1B681BB3284BDB68DC6804F118005A
:105A8000FEF76CFE251D2846FEF768FEE06A234BF4
:105A90001B68984201D9214B186000EB8000294611
:105AA0001F4B03EB8000FEF735FEE26A1D4B1B68BF
:105AB000DB6A9A42DCD31C4B01221A60D8E70CB196
:105AC000FFF7A0FC194B1C6884B9174B1C68D4B1B4
:105AD0004FF0E0234FF08052C3F8042DBFF34F8FF7
